{
  "contractName": "Loan",
  "abi": [
    {
      "inputs": [
        {
          "internalType": "contract FundHandler",
          "name": "_fundHandler",
          "type": "address"
        },
        {
          "internalType": "address",
          "name": "_loaner",
          "type": "address"
        },
        {
          "internalType": "uint256",
          "name": "_principal_units",
          "type": "uint256"
        },
        {
          "internalType": "bytes32",
          "name": "_principal_symbol",
          "type": "bytes32"
        },
        {
          "internalType": "uint256",
          "name": "_collateral_units",
          "type": "uint256"
        },
        {
          "internalType": "bytes32",
          "name": "_collateral_symbol",
          "type": "bytes32"
        },
        {
          "internalType": "uint64",
          "name": "_deadline",
          "type": "uint64"
        }
      ],
      "payable": false,
      "stateMutability": "nonpayable",
      "type": "constructor"
    },
    {
      "anonymous": false,
      "inputs": [],
      "name": "Failure",
      "type": "event"
    },
    {
      "anonymous": false,
      "inputs": [
        {
          "indexed": false,
          "internalType": "address",
          "name": "lender",
          "type": "address"
        },
        {
          "indexed": false,
          "internalType": "uint256",
          "name": "interest",
          "type": "uint256"
        }
      ],
      "name": "NewOffer",
      "type": "event"
    },
    {
      "anonymous": false,
      "inputs": [
        {
          "indexed": false,
          "internalType": "address",
          "name": "lender",
          "type": "address"
        },
        {
          "indexed": false,
          "internalType": "uint256",
          "name": "interest",
          "type": "uint256"
        }
      ],
      "name": "OfferAgreed",
      "type": "event"
    },
    {
      "anonymous": false,
      "inputs": [],
      "name": "Success",
      "type": "event"
    },
    {
      "constant": true,
      "inputs": [],
      "name": "fundHandler",
      "outputs": [
        {
          "internalType": "contract FundHandler",
          "name": "",
          "type": "address"
        }
      ],
      "payable": false,
      "stateMutability": "view",
      "type": "function"
    },
    {
      "constant": true,
      "inputs": [],
      "name": "offer",
      "outputs": [
        {
          "internalType": "address",
          "name": "owner",
          "type": "address"
        },
        {
          "internalType": "uint256",
          "name": "interest",
          "type": "uint256"
        }
      ],
      "payable": false,
      "stateMutability": "view",
      "type": "function"
    },
    {
      "constant": true,
      "inputs": [],
      "name": "owner",
      "outputs": [
        {
          "internalType": "address",
          "name": "",
          "type": "address"
        }
      ],
      "payable": false,
      "stateMutability": "view",
      "type": "function"
    },
    {
      "constant": true,
      "inputs": [],
      "name": "state",
      "outputs": [
        {
          "internalType": "enum Loan.States",
          "name": "",
          "type": "uint8"
        }
      ],
      "payable": false,
      "stateMutability": "view",
      "type": "function"
    },
    {
      "constant": false,
      "inputs": [
        {
          "internalType": "uint256",
          "name": "_interest",
          "type": "uint256"
        }
      ],
      "name": "matchLoan",
      "outputs": [
        {
          "internalType": "bool",
          "name": "",
          "type": "bool"
        }
      ],
      "payable": false,
      "stateMutability": "nonpayable",
      "type": "function"
    },
    {
      "constant": false,
      "inputs": [],
      "name": "agree",
      "outputs": [
        {
          "internalType": "bool",
          "name": "",
          "type": "bool"
        }
      ],
      "payable": false,
      "stateMutability": "nonpayable",
      "type": "function"
    },
    {
      "constant": false,
      "inputs": [],
      "name": "repay",
      "outputs": [
        {
          "internalType": "bool",
          "name": "",
          "type": "bool"
        }
      ],
      "payable": false,
      "stateMutability": "nonpayable",
      "type": "function"
    },
    {
      "constant": false,
      "inputs": [],
      "name": "collectCollateral",
      "outputs": [
        {
          "internalType": "bool",
          "name": "",
          "type": "bool"
        }
      ],
      "payable": false,
      "stateMutability": "nonpayable",
      "type": "function"
    }
  ],
  "bytecode": "0x608060405234801561001057600080fd5b5060405161169f38038061169f833981810160405260e081101561003357600080fd5b81019080805190602001909291908051906020019092919080519060200190929190805190602001909291908051906020019092919080519060200190929190805190602001909291905050506000600460006101000a81548160ff0219169083600481111561009f57fe5b0217905550856000806101000a81548173ffffffffffffffffffffffffffffffffffffffff021916908373ffffffffffffffffffffffffffffffffffffffff1602179055508460058190555083600681905550826007819055508160088190555080600960006101000a81548167ffffffffffffffff021916908367ffffffffffffffff16021790555086600160006101000a81548173ffffffffffffffffffffffffffffffffffffffff021916908373ffffffffffffffffffffffffffffffffffffffff1602179055505050505050505061151f806101806000396000f3fe608060405234801561001057600080fd5b50600436106100a5576000357c0100000000000000000000000000000000000000000000000000000000900480638fae60a5116100785780638fae60a5146101a6578063c028df06146101c8578063c19d93fb14610219578063d3cc654114610245576100a5565b8063218774f8146100aa57806334d4f968146100f0578063402d88831461013a5780638da5cb5b1461015c575b600080fd5b6100d6600480360360208110156100c057600080fd5b8101908080359060200190929190505050610267565b604051808215151515815260200191505060405180910390f35b6100f8610816565b604051808273ffffffffffffffffffffffffffffffffffffffff1673ffffffffffffffffffffffffffffffffffffffff16815260200191505060405180910390f35b61014261083c565b604051808215151515815260200191505060405180910390f35b610164610cfd565b604051808273ffffffffffffffffffffffffffffffffffffffff1673ffffffffffffffffffffffffffffffffffffffff16815260200191505060405180910390f35b6101ae610d22565b604051808215151515815260200191505060405180910390f35b6101d06110b6565b604051808373ffffffffffffffffffffffffffffffffffffffff1673ffffffffffffffffffffffffffffffffffffffff1681526020018281526020019250505060405180910390f35b6102216110e8565b6040518082600481111561023157fe5b60ff16815260200191505060405180910390f35b61024d6110fb565b604051808215151515815260200191505060405180910390f35b600080600481111561027557fe5b600460009054906101000a900460ff16600481111561029057fe5b14806102c15750600160048111156102a457fe5b600460009054906101000a900460ff1660048111156102bf57fe5b145b610333576040517f08c379a000000000000000000000000000000000000000000000000000000000815260040180806020018281038252600d8152602001807f496e76616c69642073746174650000000000000000000000000000000000000081525060200191505060405180910390fd5b600073ffffffffffffffffffffffffffffffffffffffff16600260000160009054906101000a900473ffffffffffffffffffffffffffffffffffffffff1673ffffffffffffffffffffffffffffffffffffffff161480610397575081600260010154115b156105df57600073ffffffffffffffffffffffffffffffffffffffff16600260000160009054906101000a900473ffffffffffffffffffffffffffffffffffffffff1673ffffffffffffffffffffffffffffffffffffffff161461059057600160009054906101000a900473ffffffffffffffffffffffffffffffffffffffff1673ffffffffffffffffffffffffffffffffffffffff1663b7076b9f3030600260000160009054906101000a900473ffffffffffffffffffffffffffffffffffffffff166005546006546040518663ffffffff167c0100000000000000000000000000000000000000000000000000000000028152600401808673ffffffffffffffffffffffffffffffffffffffff1673ffffffffffffffffffffffffffffffffffffffff1681526020018573ffffffffffffffffffffffffffffffffffffffff1673ffffffffffffffffffffffffffffffffffffffff1681526020018473ffffffffffffffffffffffffffffffffffffffff1673ffffffffffffffffffffffffffffffffffffffff16815260200183815260200182815260200195505050505050602060405180830381600087803b15801561055357600080fd5b505af1158015610567573d6000803e3d6000fd5b505050506040513d602081101561057d57600080fd5b8101908080519060200190929190505050505b33600260000160006101000a81548173ffffffffffffffffffffffffffffffffffffffff021916908373ffffffffffffffffffffffffffffffffffffffff160217905550816002600101819055505b600160009054906101000a900473ffffffffffffffffffffffffffffffffffffffff1673ffffffffffffffffffffffffffffffffffffffff1663b7076b9f3033306005546006546040518663ffffffff167c0100000000000000000000000000000000000000000000000000000000028152600401808673ffffffffffffffffffffffffffffffffffffffff1673ffffffffffffffffffffffffffffffffffffffff1681526020018573ffffffffffffffffffffffffffffffffffffffff1673ffffffffffffffffffffffffffffffffffffffff1681526020018473ffffffffffffffffffffffffffffffffffffffff1673ffffffffffffffffffffffffffffffffffffffff16815260200183815260200182815260200195505050505050602060405180830381600087803b15801561071857600080fd5b505af115801561072c573d6000803e3d6000fd5b505050506040513d602081101561074257600080fd5b8101908080519060200190929190505050506001600460006101000a81548160ff0219169083600481111561077357fe5b02179055507f058d619527549e88853c641ebcec23205e5df61592e3908275721b5ad490113f600260000160009054906101000a900473ffffffffffffffffffffffffffffffffffffffff16600260010154604051808373ffffffffffffffffffffffffffffffffffffffff1673ffffffffffffffffffffffffffffffffffffffff1681526020018281526020019250505060405180910390a160019050919050565b600160009054906101000a900473ffffffffffffffffffffffffffffffffffffffff1681565b60006002600481111561084b57fe5b600460009054906101000a900460ff16600481111561086657fe5b146108d9576040517f08c379a000000000000000000000000000000000000000000000000000000000815260040180806020018281038252600d8152602001807f496e76616c69642073746174650000000000000000000000000000000000000081525060200191505060405180910390fd5b600960009054906101000a900467ffffffffffffffff1667ffffffffffffffff1642111561096f576040517f08c379a00000000000000000000000000000000000000000000000000000000081526004018080602001828103825260108152602001807f446561646c696e65206973206f7665720000000000000000000000000000000081525060200191505060405180910390fd5b600160009054906101000a900473ffffffffffffffffffffffffffffffffffffffff1673ffffffffffffffffffffffffffffffffffffffff1663b7076b9f3033600260000160009054906101000a900473ffffffffffffffffffffffffffffffffffffffff16600260010154600554016006546040518663ffffffff167c0100000000000000000000000000000000000000000000000000000000028152600401808673ffffffffffffffffffffffffffffffffffffffff1673ffffffffffffffffffffffffffffffffffffffff1681526020018573ffffffffffffffffffffffffffffffffffffffff1673ffffffffffffffffffffffffffffffffffffffff1681526020018473ffffffffffffffffffffffffffffffffffffffff1673ffffffffffffffffffffffffffffffffffffffff16815260200183815260200182815260200195505050505050602060405180830381600087803b158015610ad457600080fd5b505af1158015610ae8573d6000803e3d6000fd5b505050506040513d6020811015610afe57600080fd5b810190808051906020019092919050505050600160009054906101000a900473ffffffffffffffffffffffffffffffffffffffff1673ffffffffffffffffffffffffffffffffffffffff1663b7076b9f30306000809054906101000a900473ffffffffffffffffffffffffffffffffffffffff166007546008546040518663ffffffff167c0100000000000000000000000000000000000000000000000000000000028152600401808673ffffffffffffffffffffffffffffffffffffffff1673ffffffffffffffffffffffffffffffffffffffff1681526020018573ffffffffffffffffffffffffffffffffffffffff1673ffffffffffffffffffffffffffffffffffffffff1681526020018473ffffffffffffffffffffffffffffffffffffffff1673ffffffffffffffffffffffffffffffffffffffff16815260200183815260200182815260200195505050505050602060405180830381600087803b158015610c6a57600080fd5b505af1158015610c7e573d6000803e3d6000fd5b505050506040513d6020811015610c9457600080fd5b8101908080519060200190929190505050506003600460006101000a81548160ff02191690836004811115610cc557fe5b02179055507f395a9ab3d1230297d931e1fa224ca597ca0e45f620c1aeb74b512bfcc6f66aab60405160405180910390a16001905090565b6000809054906101000a900473ffffffffffffffffffffffffffffffffffffffff1681565b60003373ffffffffffffffffffffffffffffffffffffffff166000809054906101000a900473ffffffffffffffffffffffffffffffffffffffff1673ffffffffffffffffffffffffffffffffffffffff1614610de6576040517f08c379a000000000000000000000000000000000000000000000000000000000815260040180806020018281038252601e8152602001807f4f6e6c79206f776e65722063616e2061636365707420616e206f66666572000081525060200191505060405180910390fd5b60016004811115610df357fe5b600460009054906101000a900460ff166004811115610e0e57fe5b14610e81576040517f08c379a000000000000000000000000000000000000000000000000000000000815260040180806020018281038252600d8152602001807f496e76616c69642073746174650000000000000000000000000000000000000081525060200191505060405180910390fd5b600160009054906101000a900473ffffffffffffffffffffffffffffffffffffffff1673ffffffffffffffffffffffffffffffffffffffff1663b7076b9f3030336005546006546040518663ffffffff167c0100000000000000000000000000000000000000000000000000000000028152600401808673ffffffffffffffffffffffffffffffffffffffff1673ffffffffffffffffffffffffffffffffffffffff1681526020018573ffffffffffffffffffffffffffffffffffffffff1673ffffffffffffffffffffffffffffffffffffffff1681526020018473ffffffffffffffffffffffffffffffffffffffff1673ffffffffffffffffffffffffffffffffffffffff16815260200183815260200182815260200195505050505050602060405180830381600087803b158015610fba57600080fd5b505af1158015610fce573d6000803e3d6000fd5b505050506040513d6020811015610fe457600080fd5b8101908080519060200190929190505050506002600460006101000a81548160ff0219169083600481111561101557fe5b02179055507fddba96e6ecd26271d2132906a91eb189d3d40d1c0f958d73b18995d37d719e80600260000160009054906101000a900473ffffffffffffffffffffffffffffffffffffffff16600260010154604051808373ffffffffffffffffffffffffffffffffffffffff1673ffffffffffffffffffffffffffffffffffffffff1681526020018281526020019250505060405180910390a16001905090565b60028060000160009054906101000a900473ffffffffffffffffffffffffffffffffffffffff16908060010154905082565b600460009054906101000a900460ff1681565b60003373ffffffffffffffffffffffffffffffffffffffff16600260000160009054906101000a900473ffffffffffffffffffffffffffffffffffffffff1673ffffffffffffffffffffffffffffffffffffffff16146111a6576040517f08c379a00000000000000000000000000000000000000000000000000000000081526004018080602001828103825260248152602001806114c76024913960400191505060405180910390fd5b600260048111156111b357fe5b600460009054906101000a900460ff1660048111156111ce57fe5b14611241576040517f08c379a000000000000000000000000000000000000000000000000000000000815260040180806020018281038252600d8152602001807f496e76616c69642073746174650000000000000000000000000000000000000081525060200191505060405180910390fd5b600960009054906101000a900467ffffffffffffffff1667ffffffffffffffff1642116112d6576040517f08c379a00000000000000000000000000000000000000000000000000000000081526004018080602001828103825260188152602001807f446561646c696e65206973206e6f74206f76657220796574000000000000000081525060200191505060405180910390fd5b600160009054906101000a900473ffffffffffffffffffffffffffffffffffffffff1673ffffffffffffffffffffffffffffffffffffffff1663b7076b9f3030600260000160009054906101000a900473ffffffffffffffffffffffffffffffffffffffff166007546008546040518663ffffffff167c0100000000000000000000000000000000000000000000000000000000028152600401808673ffffffffffffffffffffffffffffffffffffffff1673ffffffffffffffffffffffffffffffffffffffff1681526020018573ffffffffffffffffffffffffffffffffffffffff1673ffffffffffffffffffffffffffffffffffffffff1681526020018473ffffffffffffffffffffffffffffffffffffffff1673ffffffffffffffffffffffffffffffffffffffff16815260200183815260200182815260200195505050505050602060405180830381600087803b15801561143457600080fd5b505af1158015611448573d6000803e3d6000fd5b505050506040513d602081101561145e57600080fd5b81019080805190602001909291905050505060048060006101000a81548160ff0219169083600481111561148e57fe5b02179055507fff7e9f579a51b6b720c6461b406e511bada4e04ba3587ae33e62eadb1be30f1a60405160405180910390a1600190509056fe4f6e6c79206f66666572206f776e65722063616e2061636365707420616e206f66666572a265627a7a72315820cae181fd84df1edf259c63f1b0604945ec0705683402242e0b3bd4bd467df9ad64736f6c634300050c0032",
  "source": "pragma solidity ^0.5.12;\n\nimport './FundHandler.sol';\n\ncontract Loan {\n\n    struct Offer {\n        address owner;\n        uint256 interest;\n    }\n    event NewOffer(address lender, uint256 interest);\n    event OfferAgreed(address lender, uint256 interest);\n    event Success();\n    event Failure();\n\n    enum States {Init, Offer, Pending, Success, Failure}\n\n    address public owner;\n    FundHandler public fundHandler;\n\n    Offer public offer;\n    States public state;\n\n    uint256 principal_units;\n    bytes32 principal_symbol;\n    uint256 collateral_units;\n    bytes32 collateral_symbol;\n    uint64 deadline;\n\n    // initialize loan\n    constructor (\n            FundHandler _fundHandler,\n            address _loaner,\n            uint256 _principal_units,\n            bytes32 _principal_symbol,\n            uint256 _collateral_units,\n            bytes32 _collateral_symbol,\n            uint64 _deadline\n        ) public {\n            state = States.Init;\n            owner = _loaner;\n            principal_units = _principal_units;\n            principal_symbol = _principal_symbol;\n            collateral_units = _collateral_units;\n            collateral_symbol = _collateral_symbol;\n            deadline = _deadline;\n            fundHandler = _fundHandler;\n    }\n\n    // a match for the loan is made, if its better the current match is updated\n    function matchLoan(uint256 _interest) public returns (bool) {\n        require(state == States.Init || state == States.Offer, \"Invalid state\");\n        if (offer.owner == address(0x00) || offer.interest > _interest) {\n            if (offer.owner != address(0x00)) {\n                fundHandler.transfer(address(this), address(this), offer.owner, principal_units, principal_symbol);\n            }\n            offer.owner = msg.sender;\n            offer.interest = _interest;\n        }\n        fundHandler.transfer(address(this), msg.sender, address(this), principal_units, principal_symbol);\n        state = States.Offer;\n        emit NewOffer(offer.owner, offer.interest);\n        return true;\n    }\n\n    // the loaner agrees to a loan\n    function agree() public returns (bool) {\n        require(owner == msg.sender, \"Only owner can accept an offer\");\n        require(state == States.Offer, \"Invalid state\");\n        fundHandler.transfer(address(this), address(this), msg.sender, principal_units, principal_symbol);\n        state = States.Pending;\n        emit OfferAgreed(offer.owner, offer.interest);\n        return true;\n    }\n\n    // the loaner repays the lender and receives the collateral back\n    function repay() public returns (bool) {\n        // anyone can repay for owner\n        require(state == States.Pending, \"Invalid state\");\n        require(now <= deadline, \"Deadline is over\");\n        fundHandler.transfer(address(this), msg.sender, offer.owner, principal_units+offer.interest, principal_symbol);\n        fundHandler.transfer(address(this), address(this), owner, collateral_units, collateral_symbol);\n        state = States.Success;\n        emit Success();\n        return true;\n    }\n\n    // the lender collects the collateral if the loan failed\n    function collectCollateral() public returns (bool) {\n        require(offer.owner == msg.sender, \"Only offer owner can accept an offer\");\n        require(state == States.Pending, \"Invalid state\");\n        require(now > deadline, \"Deadline is not over yet\");\n        fundHandler.transfer(address(this), address(this), offer.owner, collateral_units, collateral_symbol);\n        state = States.Failure;\n        emit Failure();\n        return true;\n    }\n\n}\n",
  "sourcePath": "/Users/alex/Hackathons/boc-fintech2019/blockchain/contracts/Loan.sol",
  "compiler": {
    "name": "solc",
    "version": "0.5.12+commit.7709ece9.Emscripten.clang"
  },
  "schemaVersion": "2.0.2",
  "updatedAt": "2019-10-20T08:55:13.162Z"
}